:0200000460009A
:100000004643464200000156000000000103030081
:1000100000000000000000000000000000000000E0
:1000200000000000000000000000000000000000D0
:1000300000000000000000000000000000000000C0
:1000400000000000010408000000000000000000A3
:100050000000800000000000000000000000000020
:100060000000000000000000000000000000000090
:100070000000000000000000000000000000000080
:10008000EB04180A063204260000000000000000FD
:10009000050404240000000000000000000000002F
:1000A0000000000000000000000000000000000050
:1000B0000604000000000000000000000000000036
:1000C0000000000000000000000000000000000030
:1000D00020041808000000000000000000000000DC
:1000E0000000000000000000000000000000000010
:1000F0000000000000000000000000000000000000
:10010000D8041808000000000000000000000000F3
:100110000204180804200000000000000000000095
:1001200000000000000000000000000000000000CF
:10013000600400000000000000000000000000005B
:1001400000000000000000000000000000000000AF
:10015000000000000000000000000000000000009F
:10016000000000000000000000000000000000008F
:10017000000000000000000000000000000000007F
:10018000000000000000000000000000000000006F
:10019000000000000000000000000000000000005F
:1001A000000000000000000000000000000000004F
:1001B000000000000000000000000000000000003F
:1001C000000100000010000001000000000000001D
:1001D000000001000000000000000000000000001E
:1001E000000000000000000000000000000000000F
:1001F00000000000000000000000000000000000FF
:10020000FFFFFFFFFFFFFFFFFFFFFFFFFFFFFFFFFE
:10021000FFFFFFFFFFFFFFFFFFFFFFFFFFFFFFFFEE
:10100000D100204000180060000000000000000037
:1010100020100060001000600000000000000000D0
:0C1020000000006000001F000000000045
:10102C00FFFFFFFFFFFFFFFFFFFFFFFF7EFFFFFF45
:1014000000040020E9180060EB180060EB18006091
:10141000EB180060EB180060EB180060EB18006040
:10142000EB180060EB180060EB180060DF6B0060E9
:10143000EB180060EB180060EB180060A17F006003
:10144000EB180060EB180060EB180060EB18006010
:10145000EB180060EB180060EB180060EB18006000
:10146000EB180060EB180060EB180060EB180060F0
:10147000EB180060EB180060EB180060EB180060E0
:10148000EB180060EB180060EB180060EB180060D0
:10149000EB180060EB180060EB180060EB180060C0
:1014A000EB180060EB180060EB180060EB180060B0
:1014B000EB180060EB180060EB180060EB180060A0
:1014C000EB180060EB180060EB180060EB18006090
:1014D000EB180060EB180060EB180060EB18006080
:1014E000EB180060EB180060EB180060EB18006070
:1014F000EB180060EB180060EB180060EB18006060
:10150000EB180060EB180060EB180060EB1800604F
:10151000EB180060EB180060EB180060EB1800603F
:10152000EB180060EB180060EB180060EB1800602F
:10153000EB180060EB180060EB180060EB1800601F
:10154000EB180060EB180060EB180060EB1800600F
:10155000EB180060EB180060EB180060EB180060FF
:10156000EB180060EB180060EB180060EB180060EF
:10157000EB180060EB180060EB180060EB180060DF
:10158000EB180060EB180060EB180060EB180060CF
:10159000EB180060EB180060EB180060EB180060BF
:1015A000EB180060EB180060EB180060EB180060AF
:1015B000EB180060EB180060EB180060EB1800609F
:1015C000EB180060EB180060EB180060EB1800608F
:1015D000EB180060EB180060EB180060EB1800607F
:1015E000EB180060EB180060EB180060EB1800606F
:1015F000EB180060EB180060EB180060EB1800605F
:10160000EB1800609D810060EB180060EB18006033
:10161000EB180060EB180060EB180060EB1800603E
:10162000EB180060EB180060EB180060EB1800602E
:10163000EB180060EB180060EB180060EB1800601E
:10164000EB180060EB180060EB180060EB1800600E
:10165000EB180060EB180060EB180060EB180060FE
:10166000EB180060EB180060EB180060EB180060EE
:10167000EB180060EB180060EB180060EB180060DE
:10168000EB180060EB180060EB180060EB180060CE
:10169000EB180060EB180060EB180060EB180060BE
:1016A000EB180060EB180060EB180060EB180060AE
:1016B000EB180060EB180060EB180060EB1800609E
:1016C000000000000000000000000000000000001A
:1016D000000000000000000000000000000000000A
:1016E00000000000000000000000000000000000FA
:1016F00000000000000000000000000000000000EA
:1017000000000000000000000000000000000000D9
:1017100000000000000000000000000000000000C9
:1017200000000000000000000000000000000000B9
:1017300000000000000000000000000000000000A9
:101740000000000000000000000000000000000099
:101750000000000000000000000000000000000089
:101760000000000000000000000000000000000079
:101770000000000000000000000000000000000069
:101780000000000000000000000000000000000059
:101790000000000000000000000000000000000049
:1017A0000000000000000000000000000000000039
:1017B0000000000000000000000000000000000029
:1017C0000000000000000000000000000000000019
:1017D0000000000000000000000000000000000009
:1017E00000000000000000000000000000000000F9
:1017F00000000000000000000000000000000000E9
:0818000000102020ED7A0060C9
:1018100072B6264880F30888254880F30988254851
:1018200025490860022080F31488BFF36F8F04F00D
:1018300083FF04F0C3FE4FF0553020491B4A91420C
:101840003CBF41F8040BFAE71D49194A91423CBFDD
:1018500041F8040BFAE71B491B4A1C4B9A423EBF56
:1018600051F8040B42F8040BF8E700201849194A14
:1018700091423CBF41F8040BFAE704F09DFF05F0EC
:1018800035FD154C154DAC4203DA54F8041B88475E
:10189000F9E703F0EBFD124C124DAC4203DA54F8B9
:1018A000041B8847F9E704F085BF0000000400200E
:1018B000000C00200014006008ED00E00000002093
:1018C00000040020C09B0060000C0020340D0020AC
:1018D0000010002060220020081800600818006036
:1018E000081800600818006092E700F000F8FEE7B2
:1018F0002DE9F04FC1F80CD0D0F80CD0BDE8F08F36
:10190000002383F311882846A047002005F03EF904
:10191000FEE705F097F800DFFEE7000053B94AB98B
:10192000002908BF00281CBF4FF0FF314FF0FF30E7
:1019300000F074B9ADF1080C6DE904CE00F006F8C2
:10194000DDF804E0DDE9022304B070472DE9F0473B
:10195000089E04468846002B40F085808A42154642
:1019600048D9B2FA82F24AB1C2F1200701FA02F371
:1019700020FA07F7954047EA030894404FEA154ECE
:10198000230CB8FBFEF71FFA85FC0EFB178843EA11
:10199000084307FB0CF1994209D9EB1807F1FF3016
:1019A00080F0E380994240F2E080023F2B445B1AD2
:1019B000A4B2B3FBFEF00EFB103344EA034400FB79
:1019C0000CFCA44509D92C1900F1FF3380F0CB8021
:1019D000A44540F2C88002382C4440EA0740A4EBFA
:1019E0000C0400271EB1D4400023C6E90043394649
:1019F000BDE8F087002A53D0B2FA82F2002A40F004
:101A0000B680491B4FEA154E1FFA85F80127B1FB36
:101A1000FEFC230C0EFB1C1143EA014308FB0CF1F6
:101A2000994207D9EB180CF1FF3002D2994200F22B
:101A3000EC808446591AA3B2B1FBFEF00EFB1014E1
:101A400043EA044408FB00F8A04507D92C1900F12B
:101A5000FF3302D2A04500F2DC801846A4EB080454
:101A600040EA0C40BEE78B4208D9002E78D0002710
:101A7000C6E9000138463946BDE8F087B3FA83F776
:101A80007FB98B4202D3824200F2BD80841A61EB9F
:101A9000030301209846002EA9D0C6E90048A6E716
:101AA000FFDEC7F12005BB4022FA05FC4CEA030C1F
:101AB00001FA07F420FA05F821FA05F34FEA1C4E63
:101AC00048EA0404B3FBFEF9210C0EFB19331FFA9C
:101AD0008CF841EA034309FB08FA9A4502FA07F237
:101AE00000FA07F10BD91CEB030309F1FF3080F07A
:101AF00088809A4540F28580A9F102096344A3EBEE
:101B00000A03A4B2B3FBFEF00EFB103344EA034415
:101B100000FB08F8A04508D91CEB040400F1FF33D2
:101B20006BD2A04569D90238644440EA0940A4EB6D
:101B30000804A0FB02894C45C6464B4654D351D0FD
:101B4000002E69D0B1EB0E0264EB030404FA05F534
:101B500022FA07F3FC401D43C6E90054002746E77C
:101B60003746304643E7184637E707461FE7C2F1D6
:101B7000200320FA03F7954001FA02F021FA03F35B
:101B80004FEA154E3843010CB3FBFEF71FFA85F8F8
:101B90000EFB173341EA034107FB08F38B4204FABB
:101BA00002F407D9691807F1FF3C28D28B4226D9E5
:101BB000023F2944CB1A81B2B3FBFEF00EFB103377
:101BC00041EA034100FB08F38B4207D9691800F191
:101BD000FF3C10D28B420ED902382944C91A40EA80
:101BE000074714E74145ABD2B8EB020E69EB0C0294
:101BF00001381346A4E76046F0E7184695E76746C4
:101C0000D8E781467BE7384645E7ACF1020C2B4428
:101C100010E702382C4421E73746E8E6704700BF5A
:101C200008B5062000F046FE012005F08DFB00BF40
:101C300000B50A4C2668054685B01C46F06852B1CE
:101C4000074B0091CDE9013206492B46224600F0B0
:101C500021F8FFF7E5FF044B1A46F2E7000C0020DD
:101C60003C9B00604C9B0060489B006008B513469D
:101C70000022FFF7DDFF00BF0CB400B583B004AB5A
:101C800053F8042B019300F03FFA03B05DF804EB26
:101C900002B070470EB410B583B005AB064C53F8D4
:101CA000042B01930146206800F02EFA03B0BDE832
:101CB000104003B0704700BF000C0020024B0146EB
:101CC000186800F07BB900BF000C0020024B0146F1
:101CD000186800F01DB900BF000C0020032A70B482
:101CE00012D940EA0105AD0704460B4620D119463A
:101CF000204653F8045B54F8046BAE4218D1043A02
:101D0000032A20461946F2D8541E72B103780A7885
:101D10009A4208BF241806D00CE010F8013F11F8D1
:101D2000012F934206D1A042F7D1002070BC70472A
:101D3000541EEBE7981A70BC704700BF844641EA16
:101D4000000313F003036DD1403A41D351F8043B33
:101D500040F8043B51F8043B40F8043B51F8043B85
:101D600040F8043B51F8043B40F8043B51F8043B75
:101D700040F8043B51F8043B40F8043B51F8043B65
:101D800040F8043B51F8043B40F8043B51F8043B55
:101D900040F8043B51F8043B40F8043B51F8043B45
:101DA00040F8043B51F8043B40F8043B51F8043B35
:101DB00040F8043B51F8043B40F8043B51F8043B25
:101DC00040F8043B51F8043B40F8043B403ABDD294
:101DD000303211D351F8043B40F8043B51F8043B36
:101DE00040F8043B51F8043B40F8043B51F8043BF5
:101DF00040F8043B103AEDD20C3205D351F8043BC5
:101E000040F8043B043AF9D2043208D0D2071CBF90
:101E100011F8013B00F8013B01D30B8803806046B9
:101E2000704700BF082A13D38B078DD010F003032F
:101E30008AD0C3F10403D21ADB071CBF11F8013B9F
:101E400000F8013B80D331F8023B20F8023B7BE7EE
:101E5000043AD9D3013A11F8013B00F8013BF9D219
:101E60000B7803704B7843708B78837060467047B3
:101E7000F0B4860746D0541E002A3CD0CAB20346AE
:101E800002E014F1FF3436D303F8012B9D07F8D19B
:101E9000032C29D9CDB245EA05250F2C45EA054585
:101EA00033D9A4F11006360903F1200707EB061712
:101EB00003F1100242E9045542E902551032BA42D8
:101EC000F8D1721C14F00C0F03EB021204F00F0691
:101ED00013D0331F23F003030433134442F8045B8D
:101EE0009342FBD106F003042CB1C9B21C4403F8A1
:101EF000011B9C42FBD1F0BC704734461346002CBA
:101F0000F3D1F8E714460346C2E71A462646E0E74F
:101F100000293CD038B551F8043C0C1F002BB8BF49
:101F2000E418054601F0C4FA234B1A682AB1A2420C
:101F30000DD921686018824223D0626028461C6057
:101F4000BDE8384001F0B6BAA34203D81A46536838
:101F5000002BF9D111685018A04219D024D821685B
:101F60006018834206D0636054602846BDE838405C
:101F700001F0A0BAD3E9000301446360216054601A
:101F8000F3E7D2E90002014462602160D6E77047BE
:101F900020680144501883421160E6D1D3E9000360
:101FA000014453601160E0E70C232B602846BDE834
:101FB000384001F07FBA00BF00100020F8B5CD1CFA
:101FC00025F0030508350C2D38BF0C25002D0646DD
:101FD00033DBA94231D82A4F01F06AFA3A6852B18C
:101FE00013685B1B04D43FE023685B1B29D52246A2
:101FF0005468002CF8D1796800293BD02946304636
:1020000005F087F9431C28D0C41C24F00304A04227
:1020100005D0211A304605F07CF901301DD025602D
:10202000304601F047FA04F10B0020F00700231DB1
:10203000C21A01D01B1AA350F8BD0C223260002036
:10204000F8BD0B2B05D8A242636811D05360E7E7B7
:10205000144623601C442560E2E70C2330463360BD
:1020600001F028FA0020F8BD0B2BF1D85368144674
:102070003B60D5E7304605F04CF97860BEE700BF1D
:10208000001000209368013B002B93600FDA10B41E
:102090009469A34208DB0A2906D01368581C106013
:1020A0001970084610BC704710BC00F03BBC1368A8
:1020B000581C106019700846704700BF9BB1F8B5F6
:1020C00013440F4606465D1E541E01E0AC4208D084
:1020D0003A4614F8011F3046FFF7D4FF431CF5D1F0
:1020E000F8BD0020F8BD0020704700BF936810B510
:1020F000144613B95360184610BD00F0D3FE0023F8
:10210000C4E9013310BD00BF2DE9F04F9FB08B46ED
:1021100090461C46039018B18369002B00F0B780ED
:10212000A24B9B4500F0B980A14B9B4500F0C780B6
:10213000A04B9B4504BF039BD3F80CB0BBF80C30FD
:10214000180740F1B280DBF81030002B00F0AD80B2
:1021500030238DF8323098F8003005940021202289
:102160000B918DF83120944E0127002B00F08780D1
:10217000252B00F01581454603E0252B00F0A380B8
:1021800025466B786C1C002BF7D1B4EB080A76D08F
:102190004246534659460398FFF790FF01306ED0F0
:1021A0000B9B6A7853440B93002A68D000234FF0AE
:1021B000FF3201340693CDE908338DF85B301C9370
:1021C000079205E0069A07FA03F313432C46069399
:1021D0002546052215F8011B304601F0B1F8AA4644
:1021E000831B0028EED1069BD90644BF20228DF820
:1021F0005B2021781A0744BF2B228DF85B202A2907
:1022000066D1059A1168043200290592C0F29D80BA
:1022100009916178A51C2E2973D0684C03222046B1
:1022200001F08EF8002800F08680001B069B4024F9
:1022300004FA00F00343069305F101082978604889
:102240008DF83010062201F07BF8002800F0838022
:102250005C4B002B72D005AB00935A465A4B039847
:1022600006A9AFF300808146B9F1FF3F07D00B9B71
:102270004B440B9398F80030002B7FF479AFBBF8F8
:102280000C305B0618D40B981FB0BDE8F08F00F03F
:10229000E9FD464B9B457FF447AF039BD3F804B061
:1022A000BBF80C3018073FF54EAF5946039800F0C5
:1022B00099FB00283FF44CAF4FF0FF30E4E7039B5D
:1022C000D3F808B03AE7B4EB080A3FF46FAF5FE722
:1022D000A1F13002092A88BFA2469CD8099B01E0DF
:1022E0002C460135297803EB830302EB4303A1F16C
:1022F0003002092AAA46F3D92E2904F102050993CE
:102300008BD19AF801102A292FD1059B9AF8021037
:102310001A6807920433002A05930AF103050AF1AB
:10232000020338DB254C032220469A4601F008F8C8
:1023300000287FF47AAFA84655467FE7059B073310
:1023400023F007030833059391E7494243F0020362
:10235000099106935DE705AB00935A461A4B039823
:1023600006A900F0D5F881467EE7A1F130020023EE
:10237000092A079301D915E05546697803EB8303D1
:1023800002EB4303A1F13002092A05F1010AF3D956
:102390000235079341E74FF0FF329A4607923CE738
:1023A000444603E7AA46013537E700BFB895006009
:1023B00098950060789500607C9B0060849B00602D
:1023C000889B006000000000BD20006010B4044C39
:1023D00013460A460146206810BCFFF795BE00BFB1
:1023E000000C00202DE9F0470C4691460A698968E7
:1023F000DDF820808A42B8BF0A46C9F8002094F868
:10240000431006461F4611B10132C9F80020236867
:1024100099065CD5D9F800200232C9F8002023685B
:1024200013F0060F19461DD1E1688A1A002AD8BF99
:10243000194617DD04F1190A002505E0E368D9F80B
:1024400000209B1AAB420CDD012352463946304630
:10245000C047013005F10105F0D14FF0FF30BDE874
:10246000F087216894F84330003318BF01238A06AF
:102470000AD5E1185A1C302081F84300224494F810
:10248000451082F84310023304F1430239463046C6
:10249000C0470130E1D02368A268216903F0060338
:1024A000042B1DD08A4226DD4FF00009521A9144B8
:1024B0001A34002501E04D451DDA01232246394634
:1024C0003046C047013005F10105F4D1C5E713F0EE
:1024D000060F13D094F84330003318BF0123D3E71D
:1024E000D9F80000E3688A42A3EB000323EAE3790A
:1024F000DCDC002BDCDC0020BDE8F087E168D9F8EB
:1025000000208A1A002AD8BF194693DCAAE700BF28
:102510002DE9F0430C46097E85B06E290646174624
:102520000C98984604F1430E6DD039D9732900F008
:10253000F68044D9752900F00481782940F0118192
:1025400078232268DFF858C284F845300168150600
:1025500051F8043B016040F1A180D10744BF42F033
:1025600020022260002B00F093801022002184F8CA
:1025700043106068A0600028C0F2C880216821F084
:1025800004012160002B40F0A380002840F0C080AF
:102590007546082A00F0AC80AEEB0503236141E0EC
:1025A000632900F0E5801AD8002938D0582940F076
:1025B000D88084F845102268DFF8E8C1C6E76F29A3
:1025C00000F0BF80702940F0CC802268DFF8D0C1D5
:1025D00042F020027823226084F84530B6E764296F
:1025E00002D0692940F0BD8022680368110603F11A
:1025F000040557D5196805600B46002959DBDFF83B
:10260000A4C10A22B5E70368226861691D1D05603F
:1026100015061B6802D4500600F1BD801960002326
:1026200075462361CDF800803B4603AA214630461B
:10263000FFF7D8FE013020D02A46236939463046BC
:10264000C047013019D022680398E368920719D572
:102650001A1A002A16DD04F11909002504E0E368BE
:1026600003981A1AAA420DDD01234A46394630461C
:10267000C047013005F10105F1D14FF0FF3005B041
:10268000BDE8F0839842B8BF184605B0BDE8F083B6
:10269000226822F020022260102267E7500648BF1D
:1026A0009BB25AE75106A5D5B3F90030056019462B
:1026B000A3E76168A1602D200029C3F1000384F81D
:1026C000430002DB22F004022260DFF8D8C00A22B5
:1026D000754600E00B46B3FBF2F102FB113093426A
:1026E0001CF8000005F8010DF4D2082A7FF454AF5D
:1026F0002368DB077FF550AF626823699A423FF792
:102700004BAF302305F8013C013D45E7002BDFD1FD
:102710009CF8003084F8423004F1420539E7036840
:102720006268191D01601D680021284600F008FE3E
:10273000002832D0401B60602061002384F84330C1
:1027400070E72268036812F0800F03F104051AD0C5
:102750001B6805606F290CBF08220A22DFF844C0FD
:1027600004E7012384F84210236104F14205E4E701
:1027700003681A68191D0123016004F1420584F8F9
:1027800042202361D9E712F0400F0DBF1B6805609E
:102790001B880560DEE7198041E76068CCE700BF71
:1027A000A49B0060909B006010B580210446FFF759
:1027B00005FC606440B1031F00227C3043F8042F05
:1027C0008342FBD1002010BD4FF0FF3010BD00BF91
:1027D000436C0BB100207047E6E700BF1F2970B5BE
:1027E000054608D8436C16460C464BB153F82400F6
:1027F00043F8246070BD162202604FF0FF3070BDB8
:10280000FFF7D2FF08B96B6CF0E74FF0FF3070BDF7
:102810001F2938B521D8426C05460C466AB152F8DA
:10282000213053B1012B16D0591C10D00025204661
:1028300042F824509847284638BD284600F070F8E2
:10284000224601462846BDE8384000F055B8162318
:102850000360012038BD002038BD162303604FF00F
:10286000FF3038BD1F2921D838B5436C05460C46CA
:1028700083B153F8242003EB84034AB1511C10D0D8
:10288000012A0CD0002520461D609047284638BDFF
:10289000012038BDFFF788FF28B96B6CE9E70320FA
:1028A00038BD022038BD4FF0FF3038BD4FF0FF304B
:1028B000704700BF024B01461868FFF7A9BF00BF71
:1028C000000C0020024B0A4601461868FFF786BF3D
:1028D000000C0020034B1868436C0BB100207047BC
:1028E00062E700BF000C0020024B01461868FFF7AA
:1028F000B9BF00BF000C002038B50B46074C054699
:10290000114618460023236004F026FD431C00D026
:1029100038BD2368002BFBD02B6038BD5C22002023
:1029200004F022BDF8B50D461446064608B1836989
:1029300043B3254B9C422AD0244B9C4229D0244BA4
:102940009C4208BFF468A389A269A2601A0722D535
:10295000236903B322686169D31AEDB299422F4605
:1029600029DD0133A168501C0139A1602060157078
:1029700062699A4216D0A389DB0701D50A2D11D0CE
:102980003846F8BD00F06EFA0F4B9C42D4D1746803
:10299000D9E7B468D7E72146304600F023F838B9C4
:1029A0002369D7E72146304600F032F90028E7D006
:1029B0004FF0FF37E4E72146304600F029F90028C0
:1029C000F6D122680123CDE7B895006098950060A4
:1029D00078950060024B0A4601461868FFF7A2BFCF
:1029E000000C00203B4B70B51D6806460C460DB12F
:1029F000AB69DBB1384B9C421ED0384B9C424AD06D
:102A0000374B9C4208BFEC68B4F90C2093B219070D
:102A100018D5206908B313F001022CD06369002295
:102A20005B42A361A26060B3002070BD284600F045
:102A300019FA294B9C42E0D16C68B4F90C2093B28E
:102A40001907E6D4DD063CD5580726D4206942F0A4
:102A50000803A3819BB20028DDD103F42072B2F5F4
:102A6000007FD8D03046214600F01EFCA3892069A3
:102A700013F00102D2D1990758BF6269A260002801
:102A8000D2D1B4F90C301A06CFD543F04003A3815C
:102A90004FF0FF3070BDAC68B6E7616B51B104F127
:102AA0004403994204D03046FFF732FAB4F90C20BF
:102AB0000023636300232069636022F02402206006
:102AC000C5E742F04002092333604FF0FF30A28196
:102AD00070BD00BF000C0020B895006098950060A4
:102AE000789500608B891A072DE9F0410C468046E5
:102AF00041D44A68002A59DDE66A002E53D00022EC
:102B0000D8F80050216AC8F8002013F4805251D13F
:102B100001234046B047431C5FD0A389E66A216A7F
:102B20005F0705D56268636B801A0BB1236CC01A0E
:102B3000024600234046B047461C45D1D8F8003035
:102B4000B4F90C20002B55D01D2B01D0162B5AD1D7
:102B500023690022C4E90032616BC8F8005011B348
:102B600004F14403994202D04046FFF7D1F9002016
:102B70006063BDE8F0810E69AEB10D680E60990723
:102B80000CBF63690023AD1BA3600AE02B463246ED
:102B9000A76A216A4046B8470028A5EB000506440D
:102BA0000ADD002DF2DC0020BDE8F0810A6C002A6D
:102BB000A2DCF8E7606DB3E7A38943F04003A3818B
:102BC0004FF0FF30BDE8F0812269A3892260002226
:102BD0006260DA04C0D56065BEE7D8F80030002B2B
:102BE0009BD01D2B0CD0162B0AD0A38943F0400399
:102BF000A381D9E72169C4E90013D304ACD5EAE77E
:102C0000C8F80050CFE742F04002A281CCE700BFF5
:102C10000B6923B310B5044682B008B18369BBB118
:102C2000104B994212D0104B994216D00F4B99423B
:102C300008BFE168B1F90C302BB1204602B0BDE805
:102C40001040FFF74FBF002002B010BD6168F1E7F0
:102C5000019100F007F90199E2E7A168EAE7002095
:102C6000704700BFB8950060989500607895006047
:102C700020B1054B01461868FFF7CABF034B044952
:102C8000186800F0B9BA00BF000C0020749500600D
:102C9000112C006000207047014900F0ADBA00BF60
:102CA000112C00600020704770B54A1E682505FB96
:102CB00002F50E4605F17401FFF780F9044640B1B4
:102CC00000210C30666005F168022160A060FFF70A
:102CD000CFF8204670BD00BF1E4B70B51D68AB69B4
:102CE000064643B34835D5E90134013B05D51EE01E
:102CF000013B5A1C04F1680419D0B4F90C20002AD5
:102D0000F6D10025144B6566C4E90055A560C4E9F9
:102D10000455A5612946E360082204F15C00FFF731
:102D2000A7F8C4E90D55C4E91255204670BD2C68BA
:102D30002CB12546D7E7284600F010F8D2E7042149
:102D40003046FFF7B1FF044628600028F1D10C237C
:102D50003360EAE7749500600100FFFF2DE9F84F4A
:102D6000334B34491A68816290424FF00003C0E946
:102D70001233036504BF012383610546FFF7ACFFEF
:102D800068602846FFF7A8FFA8602846FFF7A4FF61
:102D90006E68E86000240423F3607466C6E90044AA
:102DA000B460C6E90444B461214606F15C0008221F
:102DB000FFF75EF8DFF888B0AF68DFF888A0DFF8CB
:102DC0008890DFF888801C4BC6F83080C6E9086B15
:102DD000C6E90AA92146FB6008227C66C7E90044CF
:102DE000BC60C7E90444BC6107F15C00FFF740F830
:102DF000EE68124BC7F83080C7E9087BC7E90AA91B
:102E00002146F3607466C6E90044B460C6E9044430
:102E1000B46106F15C000822FFF72AF80123C6E935
:102E2000086BC6E90AA9C6F83080AB61BDE8F88F27
:102E300074950060992C00600900010012000200E6
:102E4000053500602D3500606D3500608D35006002
:102E5000024B0349186800F0CFB900BF74950060B9
:102E6000112C0060836903B978E77047704700BF91
:102E7000704700BF704700BF704700BF024B034957
:102E8000186800F093B900BF000C0020952C00607A
:102E9000024B0349186800F089B900BF000C0020FC
:102EA000A52C00609368002B00F002812DE9F04F03
:102EB000B1F90C309BB20C46190783B0824690469C
:102EC00035D522699AB313F00202D8F800603DD0DC
:102ED0000027D4F828B0D4F820C0DFF8CC923D46C3
:102EE0004D452B463A4628BF4B4661465046D5B124
:102EF000D847002840F3D280D8F808301B1A07447E
:102F00002D1AC8F80830002B00F0B780D4F820C084
:102F1000D4F828B04D452B463A4628BF4B4661466B
:102F20005046002DE4D1D6E900750836D8E7214691
:102F30005046FFF757FD002840F03081B4F90C30BF
:102F4000D8F800609BB213F00202C1D113F001095E
:102F500040F0B080A76820684D46002D54D09A05F7
:102F600040F1BC80AF42BB4600F2E78013F4906FA3
:102F70002FD0D4E9041707EB4707A0EB010B07EBB1
:102F8000D777681C7F105844B8423A4684BF07463A
:102F90003A465B0540F1E98011465046FFF70EF8CE
:102FA000002800F0F5805A4621690190FEF7C6FE20
:102FB000A289019B22F4906242F08002A281A7EBD9
:102FC0000B0203EB0B00676123612060A2602F46B8
:102FD000AB465A46494600F003FAA2682368D21B62
:102FE0005B442F46A26023600025D8F80830DB1B25
:102FF000B944C8F80830002B3FD0B4F90C30A768AA
:1030000020689BB2002DAAD1D6E900950836A4E726
:103010000BF1080353E902679B460833002FF9D0F0
:103020003A460A21304600F08BF9002853D001308F
:10303000A0EB06094B46D4E904122068BB4228BF26
:103040003B46884203D9A5681544AB4219DC9A4235
:103050007DDC1346A56A216A32465046A847051E04
:103060001CDDB9EB05096BD00120D8F808305B1BDB
:103070002E447F1BC8F8083013BB002003B0BDE806
:10308000F08F31462A4600F0ABF923682B442360C9
:1030900021465046FFF7BCFD0028E2D0B4F90C30C1
:1030A00043F040034FF0FF30A38103B0BDE8F08F41
:1030B0000020704733469146104617464E469B46C1
:1030C000002FA5D00028B5D13A460A21304600F09D
:1030D00037F90028ABD17B1C9946ACE723698342C2
:1030E00015D36169A94212D82E4BA76A9D4294BF9D
:1030F0002B466FF000434A4693FBF1F3504601FB29
:1031000003F3216AB847071EC8DDED1B6DE7AF4228
:1031100028BF2F463A46494600F062F9A368226864
:10312000DB1B3A44A3602260002BEED121465046BF
:10313000FFF76EFD0028E8D0B0E72F46AB4648E722
:1031400021465046FFF764FD00288ED0A6E71A46B8
:103150003146019300F044F9019BA1682268C91A25
:103160001A44A16022601D467BE7504600F0A4F996
:10317000034600287FF423AF21695046FEF7C8FEBE
:10318000B4F90C300C2223F08003CAF8002087E742
:103190000C23CAF80030B4F90C3081E74FF0FF304F
:1031A0006CE700BFFEFFFF7F00FCFF7F2DE9F041D1
:1031B00010F148071BD088460026D7E90154013D8D
:1031C0000FD4A389012B05F1FF3506D9B4F90E30D0
:1031D0000133204601D0C04706436B1C04F168044C
:1031E000EFD13F68002FE8D13046BDE8F0813E4680
:1031F0003046BDE8F08100BF2DE9F84310F14807E3
:103200001FD0884606464FF00009D7E90154013D1A
:1032100011D4A389012B05F1FF3508D9B4F90E307B
:1032200001332146304602D0C04749EA00096B1CF1
:1032300004F16804EDD13F68002FE6D14846BDE8AF
:10324000F883B9464846BDE8F88300BF70B50C4620
:10325000B1F90E10002996B016461D4613DB6A46DA
:1032600004F064F800280EDB019A02F47042A2F523
:103270000052B2FA82F252094FF4806300202A60B1
:10328000336016B070BDA38900221B062A6004D5E6
:1032900040230020336016B070BD4FF480630020DF
:1032A000336016B070BD00BF8A8992070B4606D501
:1032B00001F1470201211A60C3E90421704770B58A
:1032C00082B001AB6A460C460646FFF7BFFF009985
:1032D00005463046FEF772FEB4F90C3070B116495F
:1032E000B162019A0099206043F08003A381C4E990
:1032F00004018AB92B43A38102B070BD9A05FBD4A7
:1033000023F0030304F1470243F002030121A381E8
:103310002260C4E90421EFE73046B4F90E1004F04E
:1033200011F810B9B4F90C30E4E7A38923F00303D2
:1033300043F001031BB2DDE7992C006000000000A0
:1033400001F0FF01102A2BDB10F0070F08D010F856
:10335000013B013A8B422DD010F0070F42B3F6D15A
:10336000F0B441EA012141EA014122F007047FF073
:1033700000070023F0E80256083C85EA010586EACA
:10338000010685FA47F5A3FA87F586FA47F6A5FA06
:1033900087F68EB9EED1F0BC01F0FF0102F0070212
:1033A00032B110F8013B013A83EA010313B1F8D1BD
:1033B0000020704701387047002D06BF354603389E
:1033C000073815F0010F07D1013015F4807F02BFD7
:1033D000013015F4C03F0130F0BC0138704700BF28
:1033E0008842F0B40DD98B1883420AD9841832B1BF
:1033F000224613F8014D02F8014D9942F9D1F0BC73
:1034000070470F2A0ED80346541E002AF7D0013405
:103410000C44013B11F8012B03F8012FA142F9D113
:10342000F0BC704740EA01039B073BD1A2F11007B3
:103430003F0901F1200606EB071601F1100300F128
:10344000100453F8105C44F8105C53F80C5C44F81A
:103450000C5C53F8085C44F8085C53F8045C44F8CE
:10346000045C1033B34204F11004EAD17B1C1B014D
:1034700012F00C0F194402F00F05034415D0043D5F
:10348000AD0803EB850C1C1F0E4656F8047B44F870
:10349000047F6445F9D10135AD002B44294402F085
:1034A0000302B1E7541E0346B1E72A46ACE700BF6A
:1034B000704700BF704700BF09B3F8B51446CAB1E2
:1034C00006460D4600F066F8A04202D32F46384665
:1034D000F8BD21463046FEF771FD07460028F6D0BC
:1034E00022462946FEF72AFC30462946FEF710FD03
:1034F0003846F8BD2746FEF70BFD3846F8BD1146A5
:10350000FEF75CBD10B50C46B1F90E1003F0F6FEE7
:10351000002803DB636D0344636510BDA38923F4B6
:103520008053A38110BD00BF002070472DE9F041FA
:103530001646B1F90C201F46D3050C460546B1F9D5
:103540000E1009D422F48052A2813B46324628460E
:10355000BDE8F04103F0D9BE0022022303F0D3FE00
:10356000B4F90C20B4F90E10ECE700BF10B50C460E
:10357000B1F90E1003F0C7FEA389421C0EBF23F45D
:10358000805343F480536065A38110BDB1F90E10E0
:1035900003F0BDBE51F8043C181F002BBCBF0B58F4
:1035A000C018704710B5074C01F0B8FD2046062240
:1035B0000D2104F021FB204601220D21BDE8104021
:1035C00004F00CBB00400042044B586842F6DF6137
:1035D0005A68121A8A42FBD9704700BF001000E0F7
:1035E00050B90E2908D8062A06D8C1EBC1011144EA
:1035F000024B33F81100704701207047D8950060E6
:10360000FFF7EEBF012070470120704708B5FFF7B4
:10361000FBFF08BD704708B5FFF7FCFF08BD0000C1
:1036200013B502AB03E903000F4B1B78B3B99DF848
:103630000230009873B16AB100F0FEFD0446014605
:10364000009800F0C7FD0099204602B0BDE8104088
:1036500001F022BC00F0D8FD0446F4E7009800F029
:10366000EBFD0099F1E700BF0D100020034610B4F8
:1036700000885C880A4640EA0440998810BCFFF73D
:10368000CFBF0120704710B500210446FFF7EEFFC1
:103690002146FFF7C0FF10BD704708B500F098FC49
:1036A000FFF7FAFF40F6C410BDE8084003F073BA14
:1036B00008B5FFF7F2FFBDE8084002F0F7BC08B517
:1036C000FFF7EBFFBDE8084002F0F7BC38B5012179
:1036D0000546FFF7CBFF29460446FFF797FF08B9D9
:1036E000002038BD2946204602F022FB0028F7D0F2
:1036F0002946204602F0B4F90028F1D02946204698
:1037000002F094FA0028EBD0AB785BB147F60343A4
:103710009C421DD00AD8B4F5F84F16D047F60143A5
:103720009C4217D02846FFF76DFFDAE747F65B4368
:103730009C4215D047F65C439C420ED047F65A4354
:103740009C42EFD101F07AF9ECE7FFF7B1FFC7E750
:1037500001F07AF9FFF7B3FFC2E701F063F9E1E79F
:1037600001F06FF9DEE708B502F007FCBDE808409C
:1037700000F07CB808B500F07EF8BDE8084002F023
:1037800001BC704701207047C04310B5C4B214F0AB
:10379000010218BF01221A214FF0844004F01EFAE2
:1037A00014F0020218BF01220C210B4804F016FA93
:1037B00014F0040218BF012219214FF0844004F0D4
:1037C0000DFA14F0080218BF012218214FF08440AE
:1037D000BDE8104004F002BA0040004238B505468A
:1037E000FFF7D0FF044610B12846FFF7CDFF204673
:1037F00038BD000010B50622174C1A214FF0844046
:1038000004F0FAF901221A214FF0844004F0E6F99D
:10381000204606220C2104F0EFF9204601220C215B
:1038200004F0DCF9062219214FF0844004F0E4F999
:10383000012219214FF0844004F0D0F9062218210A
:103840004FF0844004F0D8F9012218214FF0844051
:10385000BDE8104004F0C2B90040004210B5044673
:10386000FFF78FFF2046FFF7B9FF10BD08B5002016
:10387000FFF7F4FF08BD08B502F0AEFAFFF7EEFF60
:1038800008BD000010B502F0A7FA074B1A78824273
:10389000044607D0187002F0C7FB044B186020469E
:1038A000FFF7DCFF10BD00BF0C1000200810002047
:1038B00010B586B06C4684E803009DF802300BB169
:1038C00000F0F2FF0023ADF8163094E80300ADF8E5
:1038D000141089B20490ADF80C0004AC29B994E836
:1038E000030000F019FF06B010BDBDF80C204FF624
:1038F000FF739A42F3D02046FFF7C3FE0028EED1B3
:10390000F1E7008800F0BABC08B529B101F026FE45
:10391000BDE8084001F0F6BE01F07EFEF8E70000C9
:1039200010B50446002878D0822813D102F054FA4A
:10393000810772D4392000F05BFF00F0E5FF4FF4FF
:10394000487003F028F9392000F05AFFBDE8104014
:1039500000F0DABF83280ED102F03EFAC2075CD431
:10396000532000F045FF00F0CFFF4FF47A7003F0D2
:1039700012F95320E8E784280ED102F02DFA43070C
:103980004BD4472000F034FF00F0BEFF4FF47A70B4
:1039900003F001F94720D7E7031FDBB2A02B0ED8B5
:1039A0001E4B0146186802F077FA20B1204600F05D
:1039B00027FF00F0A9FF204600F01AFFC6E700F13C
:1039C0002003DBB2072B07D800F007040120A0403A
:1039D000C0B200F043FFB9E700F15B03DBB2022B9A
:1039E00005D80F4ABDE81040D05C02F00FBA00F1D4
:1039F0005803DBB21A2B06D80A4ABDE8104032F849
:103A0000130002F01FBA3334E4B2122C05D801F0CF
:103A1000A5FDBDE8104001F075BE10BD640C00208E
:103A2000AA960060AE96006008B5034600285AD0FA
:103A300082280FD102F0D0F9810754D5392000F047
:103A4000D7FE00F061FF392000F0DAFEBDE8084043
:103A500000F05ABF83280AD102F0BEF9C20742D54E
:103A6000532000F0C5FE00F04FFF5320ECE7842800
:103A70000AD102F0B1F9430735D5472000F0B8FE6E
:103A800000F042FF4720DFE7021FD2B2A02ADBD9B5
:103A900000F12002D2B2072A07D800F00703012064
:103AA0009840C0B200F0E2FED0E700F15B02D2B273
:103AB000022A04D80020BDE8084002F0A7B900F1AE
:103AC0005802D2B21A2A04D80020BDE8084002F0F9
:103AD000B9B93333DBB2122B05D801F09DFDBDE837
:103AE000084001F00FBE08BD38B505460C46FFF78B
:103AF00017FF1CB92846FFF797FF38BD0A20013C85
:103B000003F049F8A4B2F4E708B539280CBF5021F6
:103B10000021FFF7E9FF08BD08B528B100F09EFEBF
:103B2000BDE8084000F0F0BE08BD08B528B100F0BF
:103B30009DFEBDE8084000F0E7BE08BD2DE9F04756
:103B400090F80690847880460D4600F077FE4FEAA4
:103B50001919074600B32746F4B1C5F3072303F04C
:103B6000F002402A0BD005F12002D2B2072A25D953
:103B7000B9F1000F03D103F0E003202B20D0B34BA9
:103B80005F7817F0040707D0022000F017FF00F05D
:103B900055FE80F00100C7B2C5F303330B2B45D8A7
:103BA000DFE813F01000100065006500D100E700A9
:103BB00044004400EC004A015D015D010027EBE791
:103BC0004F46E9E7C5F30723C5F3032613F0F00FCB
:103BD00018BF36015FFA85F9A4B166B109F1200377
:103BE000DBB2072B304602D9B9F1000F07D100F044
:103BF00035FE00F089FE4846FFF792FE16E000F021
:103C000043FEF6E74846FFF70FFF7EB109F12003B8
:103C1000DBB2072B304602D9B9F1000F02D100F018
:103C200025FE01E000F038FE00F06EFEC5F303351E
:103C3000083D032D03D802F0CFF8FFF70FFE002F49
:103C400000F06B8100F0F2FD10F0010040F06581A2
:103C500088F8020000F0E2FD00F052FA404600F061
:103C600073F900F0DBFDBDE8F04700F055BAC5F38D
:103C7000072303F0F003C5F30326202B5FFA85FA30
:103C800018BF3601BAF1000F09D0BAF1010F41D0C7
:103C9000002C49D0B9F1000F40D05046ACE76B4B37
:103CA0005B7859070FD43CB126B1304600F0D6FD01
:103CB00000F02AFE00209FE72046FFF7B5FE002E09
:103CC000B4D03046ABE79CB1B9F1000F06D100F09B
:103CD000F1FD3043C0B2FFF71FFFA7E7B9F1010FB5
:103CE000F5D100F0E7FD3043C0B200F0EFFD9DE7F5
:103CF000B9F1000F05D100F0FBFD3046FFF715FFCD
:103D000094E7B9F1010F91D03046FFF70EFF00F0B4
:103D1000EFFD8BE724B1B9F1050F87D83046DAE71C
:103D2000B9F1040F82D8E8E7B9F1000FE5D0BAF194
:103D3000390F0CBF4FF44870012002F02CFF5046A1
:103D4000FFF772FE72E7C5F3812343B1012B7FF4C5
:103D50006DAF64B1C5F3090002F074F866E724B1F1
:103D6000C5F3090002F052F860E72046FAE7204662
:103D7000F2E72146E8B2FFF7C7FD57E715F4407FA9
:103D800029D1002C7FF452AFEA06C5F3421148BF97
:103D90000F244FEA810148BF8C4005F00F0048BF57
:103DA000E44300FA01F0C5F3812348BFA4B280B216
:103DB000022B40EA040008D00AD8012B02D000F000
:103DC00077F933E700F06CF930E700F079F92DE787
:103DD00000F063F92AE7C5F30122D3B20CB302F075
:103DE0000103002B3FF422AFC5F34210820015F00F
:103DF00010001CBF0F20904005F00F0318BFC043F8
:103E000003FA02F3C5F3812218BF80B29BB2022AE3
:103E100040EA03000AD00CD8012A04D000F09CF933
:103E200004E75B08DDE700F08FF9FFE600F09CF99E
:103E3000FCE600F053F9F9E65FFA85F9C5F30326CD
:103E400034B1304600F05CF9484644E700210020D8
:103E50004846FFF76AFE304600F05EF9E6E6EEB24D
:103E6000A6F1F003042B40D8DFE803F00324101779
:103E7000200044B1B9F1040F3FF6D8AEC5F30420D9
:103E800000F056F9D2E6B9F1050FF5E7C5F30420C5
:103E9000002CE1D100F034F9C8E624B1C5F30420C8
:103EA00000F027F9C2E600F021F9BFE61C4B5B7871
:103EB0005B0704D4C5F30420002CCDD0EAE74CB155
:103EC000C5F30424204600F01BF90321204600F02E
:103ED00051FDABE6012000F071FDB9F1010F7FF655
:103EE000A5AE022000F06AFDA0E63CB1B9F1000FDA
:103EF00001D0304680E6C5F30420CBE7B9F1000FCE
:103F000008D0392E0CBF4FF44870012002F043FE58
:103F1000304615E7C5F304209EE7BDE8F08700BFF3
:103F20000021002038B501880446807800F0B2F9FD
:103F3000054600F021F900F0AFF829462046BDE81B
:103F40003840FFF7FBBD000037B5858804460146C1
:103F5000022201A8FDF7F2FEF5B1BDF804204FF6EC
:103F6000FF739A4218D02046FFF7B0FB70B900F0FB
:103F700065FC88B1A3787BB1084B5B785B070BD5F8
:103F8000022003B0BDE8304000F018BD2046FFF726
:103F9000C9FF2046FFF777FB03B030BD00210020AA
:103FA00008B5002001F032FF002001F04BFF00F0C7
:103FB0007BFC00F0A9FC01F0C1FBBDE8084001F06A
:103FC000A1BB08B500F024FCBDE80840FFF7E8BF3E
:103FD00008B500F053FCBDE80840FFF7F2BFC0F39E
:103FE00003320E3202F00F02092A10B5C4B21BD8F8
:103FF000012101FA02F340F20332134203D113F01C
:1040000010000DD110BDF02C10D004D8E72C8CBFBF
:1040100000200120F6E7F42C14BF00200120F1E776
:10402000E72C03D9F12CF7E70020EBE70846E9E796
:1040300037B5858804460146022201A8FDF77EFEB9
:104040006DB1BDF804204FF6FF739A4207D0208867
:1040500000F014F903B0BDE83040FFF7C0BF002006
:1040600003B030BD82B002AB03E9030002B0704779
:1040700082B002AB03E9030002B07047704708B595
:10408000FFF7FCFF08BD000008B5FFF7F8FF014B84
:10409000188008BD0E1000207047FFF7F5BF000024
:1040A000024B1B881843FFF7EFBF00BF0E10002024
:1040B000024B1B881840FFF7E7BF00BF0E1000201F
:1040C000024B1B885840FFF7DFBF00BF0E100020D7
:1040D000704708B5FFF7FCFF08BD000008B5FFF703
:1040E000F8FF014B188008BD101000200020FFF7DA
:1040F000F5BF012303FA00F080B2FFF7EFBF000025
:10410000012303FA00F0034B1B88184380B2FFF72A
:10411000E5BF00BF10100020012303FA00F0034B9D
:104120001B8823EA0000FFF7D9BF00BF1010002052
:10413000012303FA00F0034B1B88584080B2FFF7BD
:10414000CDBF00BF10100020024B1B881843FFF7A3
:10415000C5BF00BF10100020024B1B881840FFF79E
:10416000BDBF00BF10100020024B1B885840FFF756
:10417000B5BF00BF10100020704701F0070330B535
:10418000C908012402EB81029C40E4B2013A0021FB
:1041900012F8015F20FA01F343F300036B40234060
:1041A00001316B4004291370F2D130BD10B50022EB
:1041B00000F00704C00801EB800110468B5CE3406F
:1041C00003F00103934001321843042AC0B2F5D131
:1041D00010BD000082B00B46ADF80400C0F307200C
:1041E0000E280CD89DF80410062908D8C0EBC00092
:1041F0000144044A89B2184602B0FFF7BEBF02B0BC
:10420000704700BF1210002082B0ADF80400C0F368
:1042100007200E280BD89DF80430062B07D8C0EBDA
:10422000C0001844034980B202B0FFF7BFBF0020AE
:1042300002B07047121000200E4B73B51E880E4B53
:10424000ADF804001B880F241E4346FA04F3DB0775
:10425000E5B206D414F1FF34F7D20025284602B0A7
:1042600070BD0199284600F028FE80B20128F1D0E7
:10427000F4E700BF101000200E10002007B5ADF8C5
:1042800004000198FFF7D8FF019903B05DF804EB33
:1042900000F013BE13B5104BADF804101B782BB112
:1042A000019802B0BDE81040FFF7E8BF70B1019877
:1042B000FFF7C2FF044601460198FFF78BFF019903
:1042C000204602B0BDE8104000F0F7BD0198FFF7AE
:1042D0009BFF0446F3E700BF0D100020F8B50C4B20
:1042E0000C4E1C780C4D3378A34200D1F8BD05EB81
:1042F000C40335F834005F889A88D98840EA0740BB
:1043000042EA01410134FFF7B3FE04F00704EAE793
:10431000931000209210002052100020064B10B481
:1043200018885C889A88D98840EA044042EA0141AA
:1043300010BCFFF79DBE00BF4A10002084B0ADF84E
:104340000C0049B180B24FF6FF73C31A584258416E
:1043500080F0010004B070470120F9E7F0B50D4B83
:104360000D4C1B7826780D4CB34201D10020F0BDD6
:1043700004EBC3056F788F4206D114F8337087427F
:1043800002D1AD78954203D1013303F00703EBE787
:104390000120ECE793100020921000205210002022
:1043A0001F4A2DE9F843937913F0F00F0DD193785C
:1043B0005BB11C4B95881C781B4B92F801801F78D1
:1043C00092F80090194EBC4201D1BDE8F88329460D
:1043D0001088FFF7B3FFF8B106EBC40359784145E5
:1043E0001AD116F83410494516D19978A1B999888F
:1043F000491B89B2C7290FD89079012161F30710B1
:1044000090719A79064861F307129A71FFF79CFD43
:10441000BDE8F843FFF762BF013404F00704D2E7B8
:104420004A1000209310002092100020521000200B
:104430002DE9F04FB74D89B001460446062202A887
:10444000FDF77CFCAB882A88019319461046FFF7DC
:1044500075FFA7780090AB46002800F04681B4F8BD
:1044600004A0019BAE7894F8009094F80180AAEB28
:10447000030399B2002E00F0F380A879C72900F059
:10448000F00300F2AC802188002B72D18A423E46B4
:104490000FD177B9012363F30710A871FFF73EFF2F
:1044A0002846FFF751FDAB79A371304609B0BDE84E
:1044B000F08F8DF818908DF8198051460698FFF707
:1044C0003DFF28B127B93A4641464846FFF746FF27
:1044D0008DF818908DF8198051460698FFF72EFF39
:1044E000054618B9002F3DD10026DEE7002F39D14F
:1044F0003A4641464846FFF731FF06460028F3D1C9
:104500008DF808908DF809800298FFF7B7FEC0F388
:1045100003310B2913D801228A4012F4406FC3B231
:104520001AD112F00C0F0FD1910708D010F4706F50
:1045300001D0002BB9D02033DBB2072BB5D92046F0
:10454000FFF702FD2E46B0E710F4706FF3D0A279AA
:1045500012F0F00FEFD1A8E7EF2BA6D90F33DBB2A3
:10456000022BEBE79BF8063043F001038BF8063093
:10457000BAE78A420CD15FB9A0712046FFF7E4FC8C
:10458000082221462846FDF7D9FBFFF7C7FE8CE736
:104590002046FFF74DFDE8B1E7B19BF806301F2B31
:1045A0000DD9BBF80020ADF8102000228DF81220A4
:1045B000ADF814A08DF8163004A8FFF7C5FC08224A
:1045C00021465448FDF7BAFBFFF7EAFEFFF7A6FEC7
:1045D000009E6AE72046FFF7B7FC012665E7CBB9E6
:1045E00000938DF80A7002ABADF80CA08DF808901E
:1045F0008DF8098093E80300FFF734FD2846FFF7A4
:10460000A3FC009B082219462846FDF731FCFFF762
:1046100085FE69E723889A420AD14FB9A0712046E6
:10462000FFF792FC082239462846FDF721FC3CE7BB
:104630002046FFF7FDFC0028CCD0002FCAD09BF805
:1046400006301F2BBBD9BBF80020ADF81820002284
:104650008DF81A20ADF81CA08DF81E3006A8ACE726
:10466000C7292FD83E46002FB4D023889A421CD1A8
:10467000AB79DA0713D413F0F00210D0F02AA3714B
:1046800006D0DBB2C3F30312013262F30713A37146
:104690002046FFF759FC082221461E4873E70822EE
:1046A00021461C48FDF74AFBFFE62046FFF7C0FC09
:1046B000002884D1AB79204643F00103AB71FFF7AA
:1046C00043FCF2E68DF80A70ADF80CA08DF8089066
:1046D0008DF8098002AB93E80300FFF7C3FC0822C2
:1046E00031462846FDF7C4FB4FE7002F3FF472AF79
:1046F0002046FFF79DFC064600283FF46BAF0822DA
:1047000021462846FDF71AFB2846FFF7FAF8FFF77F
:1047100047FE3AE74A100020F0B587B06C4684E8BF
:1047200003002046FFF784FE2D4E2E4D074658B15C
:10473000BDF804100098FFF701FE18B194E80300DB
:10474000FFF796FC284C45E094E8030004AB83E8AF
:104750000300BDF80420BDF81010ADF80C10002ABD
:10476000F0D089B24FF6FF729142EBD030782A78C0
:10477000441C04F0070494420AD019461A4B08223C
:1047800003EBC000FDF7DAFA3470FFF7A7FDD9E7B5
:10479000FFF71EFC08223946144837702F70FDF7CA
:1047A00067FBCFE704EBC000FFF742FEB0B12B7808
:1047B00034F8330004EBC3035F889A88D98840EA51
:1047C000074042EA0141FFF753FC2B78013303F025
:1047D00007032B70287833788342E3D107B0F0BD0C
:1047E0009210002093100020521000204A10002048
:1047F000024B0146186801F082BB00BF640C002028
:10480000024B0146186801F07CBB00BF640C00201D
:10481000014B186801F077BB640C0020024B93F940
:104820000000C0F3C7007047A4100020024B1878A6
:1048300000F00700704700BFA4100020034B187859
:1048400010F0070018BF0120704700BFA41000201F
:10485000014B1878704700BFA6100020024A137859
:1048600018431070704700BFA6100020024A13784A
:1048700023EA000010707047A6100020014B0022B0
:104880001A707047A6100020024A1378184310705F
:10489000704700BFA7100020024A137823EA0000E7
:1048A00010707047A7100020014B00221A7070474B
:1048B000A7100020014B1878704700BFA5100020FA
:1048C000704708B5FFF7FCFF08BD000008B5064BB0
:1048D0005B785B0706D5054B1978814202D01870CA
:1048E000FFF7EFFF08BD00BF00210020A51000204A
:1048F00008B5044B1A781AB100201870FFF7E1FFD1
:1049000008BD00BFA510002010B5124B12491B783E
:104910000978124C0B43124920680978037031B1B1
:104920000B43037001F0AAFA08B1FFF7E1FF246816
:104930000C4908222046FDF7D1F948B1214608224A
:104940000848FDF7FBF92046BDE8104001F04CBADD
:1049500010BD00BFA6100020A7100020640C00208E
:10496000A51000209C100020704708B5FFF7FCFF41
:1049700008BD00000A4A5278520710B50CD5094C00
:1049800041EAC0012170FFF7BBFB94F90000C0F3BE
:10499000C700FFF7EAFF10BDBDE81040FFF7B0BB4E
:1049A00000210020A410002008B5034B002018703F
:1049B000FFF7DBFF08BD00BFA410002008B50C4ABC
:1049C00092F9003023EA000040B2107042070ED185
:1049D000DBB283420BD0074B5B785B0707D5C0F394
:1049E000C700FFF799FBBDE80840FFF7DDBF08BD32
:1049F000A410002000210020094A08B55378C3F311
:104A0000800181420AD060F382035370108800F065
:104A100038F80220BDE80840FFF7D0BF08BD00BF4E
:104A200000210020044B5878C0F3800080F0010082
:104A300000F00100FFF7E0BF002100200120FFF798
:104A4000DBBF0020FFF7D8BF08B500F0D9FF4FF655
:104A5000FF710020BDE8084000F0B6BF08B5002097
:104A600000F065FF4FF6E763C31A5842584108BD8E
:104A7000022000F04DBF032000F04ABF042000F0E8
:104A800056BF0146042000F09FBF01460F2000F0F2
:104A9000A9BF0146132000F0A5BF0020FFF7F9BF12
:104AA00008B50020FFF7F1FFFFF7F7FF08BD000092
:104AB00010B500F0A5FF4FF6E761002000F084FF7D
:104AC0000021022000F072FF0021032000F06EFFA1
:104AD000174B00244FF4A05104201C8000F074FFF9
:104AE0002146062000F062FFFF21072000F05EFF54
:104AF0002146082000F076FF21460D2000F056FFE9
:104B00002146182000F06EFF2146172000F04EFFCE
:104B100021461C2000F066FF2146202000F054FFB3
:104B20002146182000F05EFFFFF7BAFF10BD00BF5E
:104B30000E100020FFF7BCBF01460E2000F036BF6C
:104B400037B50E4C01F0A6FA23888342054612D0F1
:104B50004FF6FF73ADF8003000238DF8023001F0FE
:104B600099FA40F00100ADF8040002AB13E903002C
:104B7000FEF79EFE258003B030BD00BFB0100020C0
:104B800008B501F051FA024B1860024B186008BDDD
:104B9000A8100020AC1000207047704708B5FFF740
:104BA000FCFF08BD704708B5FFF7FCFF08BD0120FA
:104BB0007047000008B5054800F06CFA00F028FFC7
:104BC000FFF7EAFFFFF7EAFF08BD00BF8D50006066
:104BD0000120704708B5FFF7FBFF08BD704770471D
:104BE00008B5FFF7FBFFFFF7FAFF08BD08B500F0B7
:104BF00073FABDE80840FEF7FDBD08B501F012FAF2
:104C000000F01CFBFFF7F2FFFFF7CDFF08BD00002F
:104C10002DE9F04F85B0FFF7CAFF40B9FFF790FFCD
:104C200000F0B4FD05B0BDE8F04FFEF72BBE2B4EF3
:104C300000F01EFB3746002420460134E4B217F88A
:104C4000015B00F071FA0F2C45D08542F4D0244B63
:104C50001B789B0701D500F06DFAFFF7BBFF4FF003
:104C6000000A019002AF5FFA8AF8404600F05CFA51
:104C700016F8013B9842834625D00024012580EA9E
:104C8000030915EA090F16D0019BA3B11BEA050F12
:104C900014BF012200228DF808408DF809808DF89C
:104CA0000A2001F0F7F940F00100ADF80C0097E898
:104CB0000300FEF7FDFD0134E4B26D00072CEDB2F8
:104CC000DFD106F801BC0AF1010ABAF10F0FCAD10F
:104CD000FFF756FFA4E78542B9D19FE7B210002045
:104CE000C110002038B500F0F3F8B0F5A04F04462D
:104CF00022D2B0F5804F77D2DF2812D8CD2861D2EA
:104D0000A7280AD8A5284ED2012804D003B233B16F
:104D1000032898BF0024204638BDC2284AD9002461
:104D2000F9E7B0F5005F80F0A280B0F5807F4DD24A
:104D3000E82828BF0024EEE745F25F23984216D802
:104D400045F2402398425FD245F21F23984254D83F
:104D5000B0F5A44F7CD3C4B2A008012304F003042F
:104D600003FA04F444EA401444F40D442CE045F200
:104D70009F23984207D8B0F5A54F52D300F01F04E7
:104D80004AF2F4003DE045F2BF23984256D945F27D
:104D9000DF239842C3D8040204F4F85444F42044B6
:104DA00044F0F004B7E75B34E4B2394B1C5D44F4E3
:104DB0008044B0E75834E4B2364B33F8144044F43E
:104DC0008844A8E740F4A044A4B2A4E7C0F30720B5
:104DD00000F006F90546E0B200F07AF82D0205F47D
:104DE000F855284384B296E7C0B200F071F804F495
:104DF0007064044344F42044E6E700F01F044AF2E0
:104E0000F10040EA042486E7C4B2C4F3820001231F
:104E100004F0030403FA04F444EA401444F40C4498
:104E2000D2E7C4B2C4F38200012304F0030403FAFE
:104E300004F444EA401444F40A44C5E700F01F00B7
:104E400000F0CEF8040204F4F85444F4005462E78D
:104E500000F01F0000F0C4F8C306C4F3431448BFB9
:104E60000001240200B2044344F41044ACE7C0F350
:104E7000042000F0B5F80546E0B200F029F82D0254
:104E800005F4F85545EA000444F400549CE700BFDB
:104E9000E4960060E896006082B0ADF80410C1F3BB
:104EA00007210E2906D89DF80420062A02D802B050
:104EB000FEF7A6BB002002B0704707B5ADF804109E
:104EC0000199FFF7E9FF03B05DF804EBFFF70ABFB4
:104ED000822825D00CD8312867D004D829285AD068
:104EE0002A2869D07047352850D0392818D0704703
:104EF000E32833D004D8E0281CD0E22829D070471A
:104F0000E62835D0E72838D0E42835D1334B5A7815
:104F1000910731D51B7813F0100F08BFE72015E07B
:104F20002E4B1A78920752D15B7813F0080F18BFF6
:104F300029207047294A1378D90744D4527812F0AF
:104F4000010F19D013F0100F08BFE32018BF002085
:104F50007047224B1B7813F0040FF2E71F4A1378B7
:104F6000590732D45278D20731D413F0100FEDE73D
:104F70001A4B1B781A07CED47047184A13781907B2
:104F800027D452789107F0D5E4207047134B1B7853
:104F900013F0200FCBE7114B1A7892061BD45B78E5
:104FA00013F0080F18BF392070470C4B1B7813F013
:104FB000400F18BF2A207047084B1B7813F0400F92
:104FC00018BF3120704739207047E2207047E02039
:104FD0007047E62070473520CEE700BF0021002053
:104FE000294B1A78510707D500F01801082927D155
:104FF00000F0F70040F00400110707D500F0180199
:10500000182926D100F0E70040F014005B78D9079A
:1050100007D500F01801082924D100F0F70040F06E
:105020000100990707D500F01803182B23D100F0D1
:10503000E70040F01100D30648BF00F0E7007047DA
:1050400000F01401042904BF00F0FB0040F0080048
:10505000D2E700F01401142904BF00F0EB0040F087
:105060001800D3E700F01101012904BF00F0FE0091
:1050700040F00800D5E700F01103112B04BF00F049
:10508000EE0040F01800D6E7002100200020704715
:1050900000207047014B1860704700BF680C00206B
:1050A000FFF7D2BC08B500F0E3F84FF4C87001F088
:1050B00072FD00F0DDF8002000F036F8C30705D5DA
:1050C000FFF7EEFFBDE8084000F0F0BF08BD08B5EF
:1050D000FFF7E8FF08BD000008B5FFF7BFFC08B9FF
:1050E000FFF728FDFFF7C4FC094B1870FFF7C6FC5B
:1050F000084B1880FFF7EBFFFFF7BDFC80B2FEF70F
:10510000CCFF054B1888BDE80840FEF7E2BF00BFA2
:10511000C1100020002100201010002070477047AF
:1051200008B5FFF7FCFF08BD014B185C704700BFD6
:10513000112100207047704708B5302383F3118890
:10514000C1B220F47F60032220F00F0002F054FD72
:10515000002383F3118808BD38B50C4D0F2455F892
:10516000040B421C01D0FFF7E7FF013C14F0FF04E1
:10517000F5D1074D072455F8040B431C01D0FFF768
:10518000DBFF013C14F0FF04F5D138BD3C97006013
:10519000209700602DE9F84F254F57F821400E4623
:1051A000611C804638D0302383F31188DFF884A057
:1051B00004EA0A05E4B221462846062202F01CFD54
:1051C00021460022284602F009FD002484F31188BC
:1051D000FFF7B1FFDFF860B007254FF001095BF87A
:1051E000040B421C1AD10023013D1C434FEA49091C
:1051F00015F0FF05E4B25FFA89F9F0D157F82600FF
:10520000431C01D0FFF798FF211C18BF0121304635
:10521000FEF7DAF908F80640BDE8F88FC1B200EAF7
:105220000A0002F0D1FC0028DDD14FFA89F3DBE758
:105230003C97006000F0FFFF2097006010B50F243E
:10524000FFF78AFF224600210748FCF711FE22469D
:1052500000210648FCF70CFE204600F037F8BDE8B8
:105260001040FEF79FB900BF11210020022100204D
:1052700030B585B00F2200216846FCF7F9FD002407
:10528000E1B268460134FFF785FF0F2CF8D12246C2
:1052900069460C48FCF722FD002814BF01250025B3
:1052A00004D0224669460748FCF748FD2B460F22EA
:1052B0000549044800F024F80446FFF731FF204672
:1052C00005B030BD022100201121002010B5044698
:1052D000C0EBC000FCF7F2FC084B1860002307305D
:1052E0001946DAB2944200D810BDC21F02F8011B61
:1052F0008242FBD101330730F3E700BFC410002026
:105300002DE9F04F4B4C85B0984626784A4B0390D8
:10531000934600220D461A700193002E5AD000F0D9
:1053200083FE464A13681060C31AFF2B05D82BB9B9
:10533000B8F1000F5BD1B0464FE0FF23D8B2404B2D
:10534000002119703F4B21701A688C46013A0B46B8
:105350008E468946CFB2BB450AD8BEF1000F01D0B8
:1053600001222270BCF1000FE2D0354A1370DFE752
:1053700002F1070A12F8017F4FB1B84231BF3F1A5C
:1053800082F80090B44633463CBF1770B64652458B
:10539000F0D10131DEE7009A5678039A12F803C083
:1053A000002286EA0C0C09FA02F7FFB21CEA070F8A
:1053B00007D0A95C29B9012005F802A07E408046EB
:1053C00086460132072AEED1009A02F8016F0133B6
:1053D00000921BE0B8F1000F05D1194B1B781BB3ED
:1053E000B8F1000F03D100F01FFE144B1860154BED
:1053F00094F800E01B680293019B18786B1E0093E1
:10540000002398464FF001094FF0140A029AC3EBAB
:10541000C3051544DAB29345BDD8B8F1000F03D0E7
:10542000054B84F800E01870019B187805B0BDE8C2
:10543000F08F00BFC3100020C2100020C810002051
:10544000CC100020C410002008B501F0C7F8FFF709
:10545000D4FBBDE8084001F0D7B808B501F0DAF890
:10546000FFF7D6FBBDE8084001F0F6B808B500F03C
:105470009FFD01F0B1F8FFF79DFBFFF7E5FFFFF798
:10548000ECFFFFF7ADFBFAE7164B1B78D90707D502
:10549000154B187840007F2820D808B3C0B2704759
:1054A0009A0703D5104B18788000F4E75B0703D503
:1054B0000D4B1878C000EEE70C4B1B7863B10C4A1B
:1054C0000949127808789342F4D210FB03F0C00027
:1054D000B0FBF2F080B2DEE70820DFE77F20704704
:1054E00001207047D81000206E0C0020D910002039
:1054F0006F0C0020154B1B78D90705D5144B187875
:10550000800800B3C0B270479A0703D5104B1878D3
:105510004008F6E75B0705D50D4B18787F28F0D9D2
:105520007F2070470B4B1B785BB10B4A0849127800
:105530000878934236BF10FB03F080B2B0FBF2F064
:10554000ECE70120DEE70120704700BFD810002003
:10555000720C0020DA100020730C0020CD2808B552
:1055600005D1FFF791FF4042294BD87008BDCE28E6
:1055700002D1FFF789FFF7E7CF2805D1FFF784FFB6
:105580004042234B9870F1E7D02802D1FFF77CFF0F
:10559000F7E7D92804D1FFF7ADFF1D4B1871E5E7F8
:1055A000DA2803D1FFF7A6FF4042F6E7DB2805D152
:1055B000FFF7A0FF4042164B5871D7E7DC2802D115
:1055C000FFF798FFF7E700F12F03DBB2072B08D8AE
:1055D0000F4A0123D13803FA00F053781843507072
:1055E000C4E7DD2805D10B4A137843F0010313709B
:1055F000BCE7DE2804D1074A137843F00203F6E73C
:10560000DF28B3D1034A137843F00403EFE700BF68
:10561000D2100020D8100020364BCD2893F902205C
:105620000AD193F9031000290CDA0021D97052B97C
:10563000314A0021117006E0CE280DD193F90310F4
:105640000029F2DC72B11A795B7913435BB2002B4B
:105650004FD12A4A13707047CF2806D1002AF1DAB9
:1056600000229A7093F90320E1E7D02802D1002AA2
:10567000F6DCE7E7D92893F9041004D10029E1DD2D
:1056800000211971DEE7DA2802D10029DADAF7E71A
:10569000DB2893F9051004D10029D3DA00215971D0
:1056A000D0E7DC2802D10029F8DCCBE700F12F019C
:1056B000C9B2072907D8D13801218140587820EA9A
:1056C00001005870BEE7DD2805D10D48017821F0B2
:1056D00001010170B6E7DE2804D10948017821F004
:1056E0000201F6E7DF28ADD10548017821F0040179
:1056F000EFE77047D2100020D9100020DA10002008
:10570000D810002008B500F0C5FC094BDA7899786C
:105710000A431CBF074A10801A795B7913431CBFE8
:10572000054B18800248BDE8084000F065BB00BF8B
:10573000D2100020CE100020D010002008B5062284
:1057400000210548FCF794FB044A00231370044A27
:105750001370044A137008BDD2100020D910002025
:10576000DA100020D810002090F902305BB990F9CF
:10577000033043B990F904302BB990F9050000309B
:1057800018BF0120704701207047000037B5574C03
:10579000062221466846FCF7D1FA0023A370E37085
:1057A000237163719DF802209DF8033013430AD0E2
:1057B0004F4B188800F073FC4E4A13783BB34E49A8
:1057C000097888422DDC9DF804209DF805301343AC
:1057D0000BD04A4B188800F062FC494A1378002B22
:1057E0004CD048490978884252DC69463F4800F06D
:1057F0008FFB18B93D48FFF7B7FF08B1FFF782FFED
:10580000062269463948FCF799FA03B030BD3E4993
:10581000097801EB8101B0EB410FD4DD0133137046
:1058200001E0FF2BFAD19DF902503DB1FFF72CFEAC
:10583000002DCCBF0123FF235843A0709DF90350D6
:105840003DB1FFF721FE002DCCBF0123FF235843BC
:10585000E07094F90220002AB5D094F903100029D1
:10586000B1D0B5235A43121203FB01F308BF012242
:105870001B1208BF0123A270E370A4E72349097833
:1058800001EB8101B0EB410FAFDD0133137001E09B
:10589000FF2BFAD19DF904503DB1FFF72BFE002DEF
:1058A000CCBF0123FF23584320719DF905503DB122
:1058B000FFF720FE002DCCBF0123FF23584360716A
:1058C00094F90420002A90D094F9051000298CD076
:1058D000B5235A43121203FB01F308BF01221B1226
:1058E00008BF0123227163717FE700BFD21000203F
:1058F000CE100020D91000206D0C0020D010002008
:10590000DA100020710C00206C0C0020700C0020BC
:1059100007B50023014601220DF107008DF807307D
:1059200000F078F89DF8070003B05DF804FB07B5B8
:105930000023014602220DF10600ADF8063000F00A
:1059400069F8BDF8060003B05DF804FB07B5042252
:10595000002301460DEB0200019300F05BF8019873
:1059600003B05DF804FB07B501228DF8071001466E
:105970000DF1070000F064F803B05DF804FB07B513
:105980000222ADF8061001460DF1060000F058F8AD
:1059900003B05DF804FB07B50422019101460DEB4D
:1059A000020000F04DF803B05DF804FB38B50C467A
:1059B0000546FFF7ADFFA04205D021462846BDE8C9
:1059C0003840FFF7D0BF38BD38B50C460546FFF765
:1059D000AEFFA04205D021462846BDE83840FFF77B
:1059E000CEBF38BD38B50C460546FFF7AFFFA04225
:1059F00005D021462846BDE83840FFF7CCBF38BD6A
:105A0000242200210148FCF733BA00BFDC1000203B
:105A1000FFF7F6BF38B50D4614460021FCF728FA0B
:105A20002A19242A88BFC5F1240434B10349224627
:105A30002944BDE83840FCF781B938BDDC100020AE
:105A40000B461144242988BFC3F1240222B1014628
:105A500002481844FCF772B9704700BFDC10002000
:105A600038B505468878002800F0DC80A5F5E045CB
:105A7000ABB2222B00F2BB80FFF700F86A4C013D6D
:105A80002080212D12D8DFE805F04DBD551B1F5990
:105A9000235D692FB5336D3771973B759F417B83CC
:105AA00027612B65477F8EA9B31651C5237843F034
:105AB0000103237095E0637843F00803637090E07E
:105AC000237843F00203F4E7237843F00403F0E77C
:105AD000237843F00803ECE7637843F00103EDE734
:105AE000637843F00203E9E7237843F01003E0E72B
:105AF000237843F02003DCE7237843F04003D8E722
:105B0000FEF766FA237843F08003D2E7237823F088
:105B10000C0343F00C03CCE7637823F0030343F05A
:105B20000303CBE723786FF30003C2E763786FF3D7
:105B3000C303C3E723786FF34103BAE723786FF316
:105B40008203B6E723786FF3C303B2E763786FF39A
:105B50000003B3E763786FF34103AFE723786FF394
:105B60000413A6E723786FF34513A2E723786FF3B6
:105B700086139EE7FEF72CFA23786FF3C71398E796
:105B8000237823F00C0394E7637823F0030395E76D
:105B90002378C3F3800282F00102D2B262F382035F
:105BA00062F3C30385E76378DA4302F0010262F32C
:105BB000000362F3410381E72378C3F3801282F08C
:105BC000010262F3861374E7FEF702FA2378C3F347
:105BD000C01282F0010262F3C7136AE70120FEF7E8
:105BE000ABFF2088FEF74DFFFEF7F2F9002038BD2D
:105BF0000020F4E72378C3F3001282F0010262F37D
:105C0000041356E72378C3F3000282F0010262F323
:105C100000034EE76378C3F3C00282F0010262F32F
:105C2000C3034BE70120E2E70021002047F61643BB
:105C3000984210B50C461BD1FEF70AFEA2780D4B18
:105C400072B100F0AA00002815BF01220022352001
:105C500029201A70FEF7CCFDFEF756FE002010BD7D
:105C60001B78002B14BF35202920FEF7C9FDF3E770
:105C70000120F4E700110020F8B5144682789DF861
:105C800018701D46284B92B11C7000F003FA274B88
:105C9000188004F12003DBB2072B44D804F007047A
:105CA0000120A040C0B2BDE8F840FDF735BF1E7826
:105CB000A6422ED11D4B188800F0F1F9C72828D82C
:105CC000AE4205F1200415D006F12003DBB2072B0C
:105CD00006D806F007060120B040C0B2FDF725FF48
:105CE000E3B2072B06D805F0070301209840C0B2A5
:105CF000FDF712FF3846E4B2FDF706FF072C12D875
:105D000005F007050120A840C0B2BDE8F840FDF746
:105D10000CBF04F12003DBB2072B04D804F0070406
:105D20000120A040F0E7F8BD011100200211002081
:105D300013B5A0F5F84018380C4606283BD8DFE824
:105D400000F0171E0410252C330026230093E123B6
:105D50001A4647F61A412046FFF78EFF002002B090
:105D600010BD27230093E5231A4647F61B41F2E7AF
:105D700026230093E022E12347F61841EBE727238F
:105D80000093E422E52347F61941E4E72623009334
:105D9000E222E12347F61C41DDE727230093E622B8
:105DA000E52347F61D41D6E728230093E52201238A
:105DB00047F61E41CFE7887818B1034B00221A70CE
:105DC000CDE70120CBE700BF01110020014B186097
:105DD000704700BF04110020024B186808B1036827
:105DE0001847704704110020024B1B680BB15B6819
:105DF0001847704704110020034B1B681BB1022198
:105E000001709B6818477047041100200B4B07B5C1
:105E10001A8882420ED01880094B1B6853B10322A6
:105E20008DF80500000A8DF806008DF80420DB6867
:105E300001A8984703B05DF804FB00BF0A110020D9
:105E4000041100200B4B07B51A8882420FD018802E
:105E5000094B1B685BB104228DF80500000A8DF820
:105E600006008DF80420DB680DEB0200984703B0B4
:105E70005DF804FB0811002004110020821C00F1D1
:105E8000080300209A4200D1704712F8011B002934
:105E9000F8D00130C0B2F5E739B1831C083013F8EF
:105EA000012B8A4203D08342F9D1002070470120A0
:105EB000704730B54FF0FF33851C002215F8014BB9
:105EC0008C420ED0B3F1FF3F02D1002C08BF134625
:105ED0000132D4B2062C62B2F0D15A1C01D018445F
:105EE000817030BD10B5831C0022083013F8014BBF
:105EF0008C4208BF03F8012C8342F7D110BDFFF795
:105F0000D8BFFFF7EFBF062200210230FBF7B0BF7A
:105F100008B50622FBF7E2FE003018BF012008BDDD
:105F2000704708B5FFF7FCFF08BD000008B5002862
:105F3000034B14BF022001201870FFF7F2FF08BDC9
:105F40000C11002008B5034B03201870FFF7E9FF80
:105F500008BD00BF0C110020FFF7E8BF08B5034BD8
:105F600001201870FFF7DDFF08BD00BF0C110020F5
:105F7000FFF7F4BF70477047704708B5FFF7FCFFA5
:105F800008BD704708B5FFF7FCFF08BD10B5FFF767
:105F9000F1FFFFF76DF9FFF7EEFF0024E0B2FFF726
:105FA000C3F818B901340F2CF8D110BD0120FCE75B
:105FB00008B500F069FEBDE8084000F019BC08B55E
:105FC000FDF7D1FBAA20BDE8084000F0E4BD08B50C
:105FD000FEF754FCFEF768FCFEF71AFCFFF7AEFB79
:105FE0000020FFF713FF0020FFF72CFFBDE808405B
:105FF000FDF7C0BB302383F31188064BDA69064BEB
:106000001A60064A00231360054A136083F311885F
:10601000704700BF482100201811002010110020F7
:1060200014110020FFF7E6BFD0B5302383F31188A9
:10603000134B144CD969144B22681868891A88428A
:10604000124808D9A2F5E45222600468104A22449A
:1060500001F5E451026019600468002383F311889C
:106060004FF47A7042F20F760027E0FB016742F2AC
:106070001072002330463946FBF750FC2044D0BD57
:1060800048210020181100201011002014110020B8
:10609000C096991908B5FFF7C7FF80B208BD10B5C3
:1060A0000446FFF7C1FF001B80B210BD08B54FF4D6
:1060B0007A7000F070FD00BE08BD704770470000A8
:1060C00010B5084A084C117824784B1C03F00F03D4
:1060D0009C421DBF054C13706054002018BF012066
:1060E00010BD00BF302100203121002020210020E0
:1060F000302383F31188002383F311887047000055
:10610000F8B50B4C90F87B7090F87A601D462346EA
:10611000002043F8040F42EA012046EA07222946FC
:1061200000F09CFA20606068002818BF2046F8BD87
:106130001C11002090F87A10054B02291A7804D11E
:10614000012A01D0062A02D15A78024B1A707047F0
:10615000601100205011002010B50446052922D8F6
:10616000DFE801F01D21031D1D1F302383F311887B
:106170000D4A012100F0ECFD0C4A0221204600F0FE
:10618000E7FD002383F31188094B1B7813B1052029
:10619000FFF796FF0220BDE81040FFF791BF0846C9
:1061A000F9E70520F7E710BD789700609C9700603D
:1061B0005911002070B50446064803680D460BB11E
:1061C00000F064FB2B462146034A0248BDE87040BC
:1061D00000F054BB38110020DD61006070B5302341
:1061E0000E4683F311880B78042B03D0002383F32E
:1061F000118870BD134C2278002AF7D0124B1B78FF
:10620000002BF3D00B899B0705D408230F4A0121EB
:10621000304600F0EFFD247842F21073A4FB0345F2
:1062200040F2E73020184FF000014FF47A724FF03F
:10623000000345EB0101FBF771FB31468000FFF7DE
:10624000B9FFD3E734110020740C00205111002055
:10625000F8B590F8743003F07F02212A04467DD10E
:1062600013F0800536D0002D78D090F87530022BD1
:106270002BD0032B1FD0012B70D190F8780058B190
:10628000012894F876200ED0424BA3661A7094F839
:106290007A30E36600232EE03F4AA2660822E266D7
:1062A0002067012010E0022AEED13C4BA3660623B2
:1062B000E366002307E0B0F87830002B4ED1384A6F
:1062C00082660120E0662367F8BD364B83660120B5
:1062D000E066EEE790F875300A2B3AD00B2B0CD025
:1062E000092B3BD190F87830012B37D82E4B8366A1
:1062F0000223C3662D4B2367D3E7B0F8785025BB44
:1063000090F87630264A003318BF01231370254BCE
:106310001A78D2B1302282F311881E7842F21073BB
:10632000A6FB036740F2E73030184FF000014FF44E
:106330007A724FF0000347EB0101FBF7EFFA2146B9
:106340008000FFF737FF85F311880023A366E3661B
:10635000D1E7144B90F877201A70DAE7B4F874207C
:1063600040F281639A4201D00020ADE794F8792091
:10637000616894F878304D6894F8771043EA022306
:10638000204694F87620A8470028EDD04368A366FD
:1063900003687EE774110020511100205A1100207B
:1063A000740C002034110020601100203561006061
:1063B00008B5102200210448FBF75AFD034A0023C8
:1063C0001370034A137008BD2021002030210020E3
:1063D00031210020F8B5294D294E2C4630782B78F4
:1063E000284F0021984230D101B12070F8BD2370B0
:1063F000254B01221A70254B93F87F10081C18BFFB
:106400000120FFF79FFDE9E723701F4B00221A7060
:10641000FFF7DDFD1D4B93F87F10081C18BF01200E
:10642000FFF79AFDDAE72370184B93F87F10081CEA
:1064300018BF0120FFF77AFDD0E70021237008463E
:10644000F8E72370FFF78AFDC8E71A460133BA5C04
:1064500003F00F030121052AC4D80FF2080C5CF8E1
:1064600022F000BF43640060E563006027640060C1
:106470003B640060EF63006009640060312100202C
:10648000302100202021002059110020C4210020AB
:1064900038B50E4C2368002201210546986802F0A9
:1064A000EDFC284600F02AFC4FF4FA7000F073FB74
:1064B0000749284600F00BFC236800221146986823
:1064C00002F0DCFC034B00221A6038BDC021002022
:1064D000C09700603811002038B50B4C2368054682
:1064E00000229868012102F0C9FC284600F006FC51
:1064F0000649284600F0EBFB236800229868114605
:10650000BDE8384002F0BABCC0210020C09700604E
:10651000014B1878704700BF5011002070B5302330
:1065200004460D46164683F311880F490B78042B59
:1065300003D0002383F3118870BD01200B89A04094
:10654000184209D001EB8401CB68586964210C30F2
:1065500000F02EFB0130ECD033462A46214602489B
:1065600000F048FCE5E700BFC421002010B501465B
:10657000044608220120FFF7D1FF082221460248E5
:10658000FBF7DCFB10BD00BF5111002010B5014628
:10659000044606220220FFF7C1FF062221460248D8
:1065A000FBF7CCFB10BD00BF5A11002001460322AF
:1065B0000220FFF7B3BF70477047704708B5FFF779
:1065C000FAFF00F092FEFFF7F7FF08BD08B500F0F4
:1065D00094FEFFF7F2FF08BDFFF7CABC08B5FFF74E
:1065E000E7FE0648FFF754FF054B064A1A604FF4D2
:1065F000FA70BDE8084000F0CEBA00BFC421002008
:106600007C110020780C0020014B1868FFF7DEBBDE
:106610007C11002038B50F4CFFF7DCFE2378052BEA
:1066200016D125462378052B05D0FEF76DF9BDE878
:106630003840FFF767B8FFF7C2FCFFF7A7FC002858
:10664000F0D0284600F0E8FB2846FFF745FFE9E7D1
:1066500038BD00BFC421002070470000020A032A91
:1066600011D006D8012A1ED0022A1FD000200246CF
:1066700011E0212A11D0222AF8D1E9B10129F5D15E
:106680007B200F4A07E0C0B20228EFD80D4A0E491E
:1066900052F82020085C1A60704751B10129E5D1F9
:1066A00009200A4AF7E71220094AF4E73B20094A81
:1066B000F1E70920084AEEE74020084AEBE700BF6F
:1066C000CC980060D0970060DC9700600A9800606A
:1066D0001A980060DF970060F19700602C980060C6
:1066E000024B034A1A60034A5A6070473421002063
:1066F0006022002000000820094B30B51C684D1EA8
:10670000224449422A440A4059681044884204D825
:10671000A04202D31860104630BD0022FBE700BF44
:106720003421002008B5302383F31188FFF7E4FFFC
:10673000002383F3118808BD70B5BFF34F8FBFF3FB
:106740006F8F1B4B0021C3F85012BFF34F8FBFF365
:106750006F8F5A6942F400325A61BFF34F8FBFF313
:106760006F8FC3F88410BFF34F8FD3F88020C2F32C
:10677000C900C2F34E32520143F6E07402EA040645
:10678000014646EA817511F1FF31C3F86052F8D233
:10679000203A12F1200FF1D1BFF34F8F5A6942F422
:1067A00080325A61BFF34F8FBFF36F8F70BD00BF50
:1067B00000ED00E0FEE700000C4B70B5082000245F
:1067C00093E826000439954207D8D968914209D840
:1067D000013803F11003F3D170BD51F8046F42F892
:1067E000046BF0E742F8044BF0E700BF4899006003
:1067F00038B5084C0123002523706560FFF770FF52
:106800000549064800F03CF90223237085F31188FE
:1068100038BD00BF40210020C899006048210020F9
:1068200072B6034BD865034B03221A70FEE700BF14
:106830004821002040210020034BDA68937D0BB1F2
:10684000013B937500F034B84821002010B50A4A86
:1068500013699C68A1420CD85C6881600360446045
:10686000206058609868411A99604FF0FF33936137
:1068700010BD091B1B68ECE74821002010B4036120
:106880000023C260436110BCFFF7E0BF036881686A
:106890009A680A449A60426813605A600023036051
:1068A000024B4FF0FF329A61704700BF4821002031
:1068B00070B5124DEA6929460132EA6151F8102F8C
:1068C0008A4206D09368013B936030262C69A36806
:1068D00003B170BD226861680A605160236083F370
:1068E0001188E36821692046984786F31188616919
:1068F0000029EBD02046FFF7A9FFE7E74821002059
:1069000000230375826803691B6899689142FBD272
:106910005A68036042601060586070470023037536
:10692000826803691B6899689142FBD85A680360C2
:10693000426010605860704708B5302383F31188B7
:106940000A7D0023052A06D8DFE802F00C050503BE
:10695000130F8A6913604FF0FF338B610846FFF70E
:10696000CFFF002383F3118808BD8A699368013340
:1069700093604A680B6813605A60ECE7084B10B5E7
:106980001C68D86822681A60536001222275DC6096
:10699000FFF7C4FF01462046BDE81040FAF7A8BF44
:1069A00048210020FFF7ACBF064BD96814220875B8
:1069B00018688A7502681A60536001220275D860EF
:1069C000FAF796BF4821002030B50C4BDC684B1C11
:1069D00087B005460FD02346094A6846FFF74EFFA9
:1069E0002846FFF7E1FF009B13B16846FFF74EFF13
:1069F000A06907B030BDFFF7D7FFF9E748210020B5
:106A000039690060044B1A68DB6892689B689A4297
:106A100001D9FFF7B3BF704748210020084BDA685F
:106A20001B6898689368927D22B1984294BF0020B9
:106A300001207047984234BF00200120704700BFFA
:106A4000482100200C4B10B51C68D86822681A60D9
:106A5000536001222275DC60837D4BB9FFF750FF44
:106A60001423837501462046BDE81040FAF740BF65
:106A7000FFF754FFF6E700BF48210020FEE70000C3
:106A800070B504460025194B856286B021630E4619
:106A9000586000F0ADF804F11003236163614FF01A
:106AA000FF33A361124BE561DA6924600023C4E976
:106AB000082304F134016460A560E562E565802384
:106AC0000C4A204600F01CF80123E0600A4A0375D6
:106AD000009272680192B268CDE90223074B6846C2
:106AE000CDE9043500F042F806B070BD4021002029
:106AF00048210020D7990060DC9900607D6A006021
:106B000002228B608A824B621422002308618A75FC
:106B10000B62CB61084670478368C168A3F14C02E1
:106B200043F81C2C026943F84C2C426943F8482C6A
:106B30000C4A43F82C2C0C4843F8180C022203F89A
:106B4000142C1420002203F8120C43F8201C03F824
:106B5000132C43F8041C43F8082C43F80C2CA3F125
:106B600028007047011900604821002008B5FFF790
:106B7000D3FFBDE80840FFF715BF0000024BDB68FC
:106B800098610F20FFF710BF48210020302383F3C6
:106B90001188FFF7F3BF08B50146302383F311884E
:106BA0000820FFF711FF002383F3118808BD0000C0
:106BB000054BDB6821B1036098610320FFF704BF38
:106BC0004FF0FF30704700BF4821002003682BB111
:106BD0000022026099611846FFF7E4BE7047EFF3A8
:106BE0000983203383F30988002383F311887047D6
:106BF000302080F3118862B60D4B0E4AD96821F41B
:106C0000E0610904090C0A430B49DA60CA6842F0E2
:106C10008072CA60094A0A49C2F8B01F116841F07F
:106C2000010111602022DA7783F82200704700BF4B
:106C300000ED00E00003FA05F0ED00E0001000E0D8
:106C400055CEACC510B5302383F311880B4B5B6870
:106C500013F400630FD0EFF30984203C4FF08073EE
:106C6000E36184F30988FFF7D9FE10B1044BA361F7
:106C700010BD044BFBE783F31188F9E700ED00E05A
